:040000009AEF11F072
:08000800046ED8CF05F0E0CF33
:1000100006F00001E9CF0CF0EACF07F0E1CF08F0DD
:10002000E2CF09F0D9CF0AF0DACF0BF0F3CF12F01C
:10003000F4CF13F0FACF14F000C00EF001C00FF0AF
:1000400002C010F003C011F09DA02AEF00F09EB096
:1000500051EF00F09DAA30EF00F09EBA89EF00F05A
:100060000EC000F00FC001F010C002F011C003F08C
:100070000CC0E9FF07C0EAFF078E08C0E1FF09C016
:10008000E2FF0AC0D9FF0BC0DAFF12C0F3FF13C0B2
:10009000F4FF14C0FAFF045006C0E0FF05C0D8FF0B
:1000A0001000150ECF6EA00ECE6E0201632BD8B4D9
:1000B000642B73A101D0652B9E90000130EF00F0FE
:1000C00095988C98080E016E00D00000018E10D01B
:1000D000019E030116330001D8B08C88D8A08C98FB
:1000E000018C06D0019C012EF4D700D000008C8832
:1000F000010E006EE96AE92EFED7002EFBD7990E9D
:10010000E96EE92EFED7000001BEE2D701BCEAD7B6
:1001100012009EAAFED7AECFFEF10101036AFD5187
:10012000FF0FE96E010E0320EA6EFEC1EFFFFEC174
:1001300016F30001C5DF0101FD2B9E9A000130EF8F
:1001400000F053657475702053756363657373664F
:10015000756C0A0054454D503A2025322E32660DFA
:100160000A00444F3A2025322E31660D0A007048AD
:100170003A2025322E31660D0A005455524220286D
:1001800070657263656E74293A2025660D0A000059
:100190005444533A2025332E32660D0A0000426142
:1001A00074204D4F44554C452053494D3A0A0000A8
:1001B000546174207068616E20686F692073696D86
:1001C0003A200A004154453000004B69656D2054C7
:1001D0007261204D6F64756C652053696D3A0A0039
:1001E0004361752068696E6820534D533A0041544D
:1001F0002B434D47463D31004341552048494E4829
:1002000020475052530A000041542B534150425250
:100210003D332C312C22436F6E74797065222C2271
:100220004750525322004341552048494E482041EF
:10023000504E0A0041542B53415042523D332C3111
:100240002C2241504E222C227761702200000D0A90
:1002500053454E4420444154410D0A00424154202C
:10026000475052530A0041542B53415042523D31A2
:100270002C3100004B484F492054414F2048544DE9
:100280004C0A000041542B48545450494E495400E4
:1002900053454E442055524C3A20000041542B48BF
:1002A000545450504152413D2255524C222C2277F9
:1002B000617465727676762E303030776562686F5D
:1002C00073746170702E636F6D2F757064617465E7
:1002D0005F646174612E7068703F743D25322E3109
:1002E00066267464733D25322E316626646F3D2583
:1002F000322E31662670683D25322E3166267475A1
:1003000072623D25322E316622004B484F492054FF
:10031000414F20434944200A000041542B48545483
:1003200050504152413D22434944222C3100424128
:1003300054204441552054485543204849454E20B7
:100340004854484C200A000041542B485454504112
:100350004354494F4E3D300054415420475052536E
:100360000A0041542B53415042523D302C31000081
:100370006368756F69206775692074696E3A202516
:10038000730D0A00020EEA6EFE0EE96EEF500EE0EB
:100390000F0E016E006A002EFED7012EFBD78F0EC6
:1003A000006E002EFED70000EF2EF2D712000900DB
:1003B000F55212E0F6CFF1F2F7CFF2F2166AF2BE82
:1003C000168EF29EF5CF16F37BDE16BEF28EF1C2CC
:1003D000F6FFF2C2F7FFEBD712000900F5520DE06D
:1003E000F6CFF1F2F7CFF2F2F5509EA8FED7AD6E40
:1003F000F1C2F6FFF2C2F7FFF0D712009EA8FED7B7
:10040000AD6E12000201F16BF15163080AE3036A59
:10041000F151FF0FE96E010E0320EA6EEF6AF12B36
:10042000F3D700011200140E0201F16FFA0EFE6FF5
:100430000001A8DF0201F12FF9D79E0EF66E010E22
:10044000F76E0001B4DFB00EF66E010EF76EAFDF8F
:10045000C40EF66E010EF76EC0DF0D0ECFDF0A0E72
:10046000CDDF040E0201F16FFA0EFE6F00018ADF8C
:100470000201F12FF9D70001C5DFCA0EF66E010E99
:10048000F76E95DF410E9EA8FED7AD6E540E9EA866
:10049000FED7AD6E0D0EB2DF0A0EB0DF040E020104
:1004A000F16FFA0EFE6F00016DDF0201F12FF9D737
:1004B0000001A8DFE00EF66E010EF76E78DFEE0E9B
:1004C000F66E010EF76E89DF0D0E98DF0A0E96DFCD
:1004D000080E0201F16FFA0EFE6F000153DF0201F8
:1004E000F12FF9D700018EDFF80EF66E010EF76ED0
:1004F0005EDF080EF66E020EF76E6FDF0D0E7EDF0A
:100500000A0E7CDF080E0201F16FFA0EFE6F000189
:1005100039DF0201F12FF9D7000174DF260EF66EE4
:10052000020EF76E44DF340EF66E020EF76E55DFE4
:100530000D0E64DF0A0E62DF080E0201F16FFA0E83
:10054000FE6F00011FDF0201F12FF9D7000169EFF3
:1005500012F0010E0201FD5F0DE3020EEA6EFD0EC8
:10056000E96EEF5007E0020E006E002EFED700D0BD
:10057000EF2EF9D70001120096908D90020E020125
:10058000FB6FFA0EFD6F0001E4DF0201FB2FF9D7CC
:100590009680020EFB6FFA0EFD6F0001DADF02019A
:1005A000FB2FF9D79680000112000201FC6BFC5171
:1005B00007081BE396908D90070E006E002EFED765
:1005C00000D0D890FB3302E28D9001D08D809690C0
:1005D000EF0E006E002EFED700D09680070E006E44
:1005E000002EFED700D0FC2BE2D700011200020142
:1005F000FB6BFB5107081BE396908D90070E006E76
:10060000002EFED700D096801F0E006E002EFED763
:1006100000D0968084B002D0D89001D0D880FC332E
:10062000780EFD6F000195DF0201FB2BE2D7FCC2C3
:1006300001F0000112008E0E006EFCC201F0FBC240
:1006400002F0036A01AE05D0011E021E022A01E17A
:10065000012A015209E102C001F0026A080E005E9F
:10066000015202E1006A0DD0D89001BE04D00236DA
:1006700001360006F9D70201FCAF02D0000101D01B
:10068000019E000125EF04F003010251D8B4A5D06A
:100690000E6F0651D8B4A1D00E5F05E37F0E0E2772
:1006A000D8B09BD006D0810E0E5FD8A096D0D8B41B
:1006B00094D00EC300F0016A026A036A0D6B03C393
:1006C0000CF30C8F04C30BF305C30AF3190E0E6F62
:1006D00009510A5F0DE2010E0B5F0AE20C5F08E2AE
:1006E0000D5F06E20D2B0C2B0B2B09510A2728D08E
:1006F00008510B5F12E2010E0C5F0FE20D5F0DE27D
:100700000D2B0C2B08510B2709510A2719E30B2B32
:1007100017E10C2B15E10D2B13D0075180090C5F4D
:100720000EE2010E0D5F0BE20D2B075180090C2725
:1007300008510B27E9E30C2BE7E10D2BE5D70380EC
:100740000E2F01D00BD0D8900A370B370C370D374E
:10075000D8900336023601360F37BAD70FA106D02C
:10076000D8900132023203320F3302D0000635E056
:100770000FBF1ED0D8900A370B370C370D370951F1
:100780000A5F07E2010E0B5F04E20C5F02E20D5FFD
:100790001AE308510B5F05E2010E0C5F02E20D5FE8
:1007A00012E3075180090C5F03E2010E0D5F0BE3BA
:1007B000032A09E1022A07E1012A05E1002A0DE0E6
:1007C00001320232033203C30EF307510E1B0EAF88
:1007D00002D0018E06D0019E04D0006A016A026A2E
:1007E000036A000112000201F26B0001C5DECC0EAB
:1007F0000201FB6F0001D9DE440E0201FB6F000114
:10080000D4DE0201F25306E10001F1DE01C0F2F292
:10081000F8D702010001B0DECC0E0201FB6F00012F
:10082000C4DEBE0E0201FB6F0001BFDEE0DE01C0D0
:10083000F3F2DDDE01C0F4F2F4C2F6F2F3C2F5F237
:10084000F6C2FCF2F5C2FBF2F6D603C0FEF202C01D
:10085000FDF201C0FCF200C0FBF203C005F302C0D0
:1008600004F301C003F300C002F30301096B086B3A
:10087000076B830E066F000107DF03C0FAF202C0A8
:10088000F9F201C0F8F200C0F7F2C80E0201FE6FE3
:10089000000178DDF7C200F0F8C201F0F9C202F001
:1008A000FAC203F06EEF0DF08E0E006E0201F651EB
:1008B000005EF7C202F0F8C201F0028E005209E0B9
:1008C000D890025202E1015204E002320132002EBD
:1008D000F7D7F7AF05D0011E021E012AD8B4022AAD
:1008E000000112008E0E006E01C301F000C302F081
:1008F000036A015209E102C001F0026A080E005EBB
:10090000015202E1006A08D0D89001BE04D002363C
:1009100001360006F9D7019E120003C30AF3030152
:1009200007510A1B0AAF05D0D894D89003BFD880CE
:100930002FD003C30AF306C30BF302510B5F06E08B
:100940000AAF26D0D850010AD86E22D007C30BF3C5
:1009500003510B5F06E00AAF1BD0D850010AD86ED6
:1009600017D008C30BF304510B5F06E00AAF10D099
:10097000D850010AD86E0CD009C30BF305510B5F98
:1009800006E00AAF05D0D850010AD86E01D0D89041
:1009900000010BEF07F0800ED8A202D00301071B65
:1009A00003010C6B0D6B03C30BF307510B1B0251BF
:1009B000D8B4DFD00A6F006E0651D8B4E3D00A5F16
:1009C000D8B483D03EE307C310F3108F08C30FF3EE
:1009D00009C30EF30D6BD89010330F330E330D3364
:1009E0000A2FF8D70BAF03D00C81E0D00C910A91FD
:1009F0000C89030EEA6E050EE96EEBD00C990BBF65
:100A00000AD00AA113D010330F330E330D33002A4E
:100A1000D8B4C7D00BD010BF0CD0D8900D370E373C
:100A20000F3710370006D8B4BCD0F5D70C8D6DD079
:100A30000C9D03C30BF303AF02D0108FABD0109FFC
:100A4000A9D006C30AF306C300F002510A5F03C32C
:100A500010F3108F04C30FF305C30EF30D6BD89082
:100A600010330F330E330D330A2FF8D70BAF03D0EB
:100A70000C839CD00C930A910C8B030EEA6E090E2A
:100A8000E96EA7D00C9B0BBF0AD00AA113D010337C
:100A90000F330E330D33002AD8B483D00BD010BFE0
:100AA0000CD0D8900D370E370F3710370006D8B45A
:100AB00078D0F5D70C8F29D00C9F07C30BF307AF65
:100AC00002D0108F67D0109F65D007C310F3108F2E
:100AD00008C30FF309C30EF30BAF04D0109F0C85AE
:100AE00065D00C950D6B0A91030EEA6E050EE96E4A
:100AF00070D00BBF1CD003C30BF30AA106D0103378
:100B00000F330E330D33002A4CE00DAF0BD00E2BFC
:100B100009E10F2B07E1102B05E110330F330E33E2
:100B2000002A3FE00CBD84D70CBFC6D71CD0800E76
:100B3000101B10AF04D03AD007C30BF30AD003C385
:100B40000BF3105306E10F5304E10E5302E1006A68
:100B500021D010BF08D0D8900D370E370F3710377F
:100B6000002EF7D71ED00BAF02D0108F13D0109FDE
:100B700011D006C300F007C310F308C30FF309C375
:100B80000EF308D002C300F003C310F304C30FF345
:100B900005C30EF310C301F00FC302F00EC303F040
:100BA00034D0006A016A026A036A2FD00D6B0E1FEF
:100BB0000F1F101F0D1F0D2B05E10E2B03E10F2B37
:100BC00001E1102B0CB112D70CB354D70CB589D757
:100BD000B3D7EF500E2705E30F2B03E1102BD8B44A
:100BE0000A81ED52EF500F2703E3102BD8B40A818E
:100BF000ED52EF50EFBE01D0800A1027D8B00A8125
:100C00000CB9FCD60CBB3ED774D700011200020110
:100C1000FE51D8B486D0006E03010251D8A402D090
:100C200002017FD0002607E3810E0026D8A002D063
:100C3000020177D00AD07F0E005ED8B002D0020148
:100C400070D0D8A402D002016CD0FFC206F30351C9
:100C5000061B0201FF8F0301038F01510503F4CF2F
:100C600008F300510403F4CF03F0F3CF07F30503B7
:100C7000F3500827F4500723000E03220151040308
:100C8000F3500827F4500723000E026A03220222C1
:100C90000201FF5103010503F3500727F45003221B
:100CA000000E02220201FF5103010403F350032648
:100CB000F4500222000E016A012201510303F35095
:100CC0000727F4500322000E0222012200510303E1
:100CD000F3500326F4500222000E01220201FF51BC
:100CE00003010303F3500226F4500122002A01BE3F
:100CF00005D007370336023601360006000E07AF6F
:100D00000AD0032A02220122015005E1025003E128
:100D1000035001E1002A06BF018E06AF019E06D0F6
:100D20000201006A016A026A036A030100011200FB
:100D30000C0E016EC250C30B0110C26E4F0E006E3E
:100D4000002EFED700D00201F26BF251090823E316
:100D5000F251040DF350036A010FE96E010E0320F6
:100D6000EA6EC282C2B2FED7C4CF01F3C3CF00F392
:100D70000001B8DD00C0EFFF01C0ECFF02C0ECFFD6
:100D800003C0ECFF0A0E0201FE6F0001C2EC01F08D
:100D90000201F22BDAD7F36BF3510808D8A08ED0FA
:100DA000010EF325F46FF4510908D8A085D0F35152
:100DB000040DF350036A010FE96E010E0320EA6E81
:100DC000EFCFFEF2ECCFFFF2ECCF00F3ECCF01F36C
:100DD000F451040DF350036A010FE96E010E032074
:100DE000EA6EEFCF00F0ECCF01F0ECCF02F0ECCFE9
:100DF00003F003C005F302C004F301C003F300C015
:100E000002F301C309F300C308F3FFC207F3FEC2F4
:100E100006F3000182D54DE30201F351040DF350B6
:100E2000036A010FE96E010E0320EA6EEFCF55F160
:100E3000ECCF56F1ECCF57F1ECCF58F1F351040D54
:100E4000F350036A010F016E010E032201C0FEF28E
:100E500003C0FFF2F451040DF350036A010FE96E71
:100E6000010E0320EA6EEFCF00F0ECCF01F0ECCFE3
:100E700002F0ECCF03F0FFC2EAFFFEC2E9FF00C0C0
:100E8000EFFF01C0ECFF02C0ECFF03C0ECFFF45128
:100E9000040DF350036A010FE96E010E0320EA6EA0
:100EA00055C1EFFF56C1ECFF57C1ECFF58C1ECFF35
:100EB00000010201F42B77D7F32B6ED70101546B9D
:100EC000536B526B516B020E0201F56FF55107081F
:100ED00037E3F351040DF350036A010FE96E010E7D
:100EE0000320EA6EEFCF00F0ECCF01F0ECCF02F080
:100EF000ECCF03F0EACFFFF2E9CFFEF2D89254C173
:100F000005F353C104F352C103F351C102F303C00B
:100F100009F302C008F301C007F300C006F30001A3
:100F20003ADDFFC2EAFFFEC2E9FF03C054F102C08E
:100F300053F101C052F100C051F10201F52BC6D7A7
:100F400054C101F353C100F352C1FFF251C1FEF28B
:100F50000301056B046B200E036F810E026F00010D
:100F600056DE03C001F302C000F301C0FFF200C06F
:100F7000FEF203C005F302C004F301C003F300C096
:100F800002F30301096B086B076B890E066F000102
:100F900044EC03F003C001F302C000F301C0FFF210
:100FA00000C0FEF203C005F302C004F301C003F366
:100FB00000C002F30301096B086B400E076F810E3E
:100FC000066F000144EC03F003C0F9F202C0F8F22E
:100FD00001C0F7F200C0F6F2660E0301016F006F68
:100FE000B60E0201FF6F810EFE6FF9C205F3F8C263
:100FF00004F3F7C203F3F6C202F3000108DE03C0F4
:1010000001F302C000F301C0FFF200C0FEF2D8926B
:1010100003C005F302C004F301C003F300C002F3F0
:10102000520E0301096FB80E086F2A0E076F830E68
:10103000066F0001B0DC03C0FDF202C0FCF201C08B
:10104000FBF200C0FAF2FAC200F0FBC201F0FCC2EF
:1010500002F0FDC203F097EF0DF00201F36BF26BAB
:10106000040E016EC250C30B0110C26E4F0E006E13
:10107000002EFED700D0C282C2B2FED7C3CFF2F29A
:10108000C4CFF3F2F3C201F3F2C200F300012ADC91
:1010900003C0F7F202C0F6F201C0F5F200C0F4F2AC
:1010A00003C005F302C004F301C003F300C002F360
:1010B0000301096BC00E086F7F0E076F880E066F65
:1010C000000144EC03F003C0F7F202C0F6F201C0E5
:1010D000F5F200C0F4F203C001F302C000F301C056
:1010E000FFF200C0FEF20301056B046B480E036FB4
:1010F000850E026F00018BDDA1EF0DF00201F36B95
:10110000F26B000E016EC250C30B0110C26E4F0E87
:10111000006E002EFED700D0C282C2B2FED7C3CF6F
:10112000F4F2C4CFF5F2F5C201F3F4C200F300010A
:1011300072EC04F003C0F9F202C0F8F201C0F7F259
:1011400000C0F6F203C005F302C004F301C003F3CC
:1011500000C002F30301096BC00E086F7F0E076F1A
:10116000880E066F000144EC03F003C0F9F202C0E0
:10117000F8F201C0F7F200C0F6F203C001F302C0BA
:1011800000F301C0FFF200C0FEF20301056B046B27
:10119000200E036F810E026F000139DD03C0FCF0E9
:1011A00002C0FBF001C0FAF000C0F9F0D8900201D3
:1011B0009E35036A740FE96E020E0320EA6EECCFCF
:1011C00003F0ED52EF509C5F03509D5BD8909E352D
:1011D000036A740FE96E020E0320EA6EF5C2ECFF9B
:1011E000ED52F4C2EFFFD8909E35036A740FE96E9A
:1011F000020E0320EA6EECCF03F0ED52EF509C2775
:1012000003509D239E2B9E51130801E29E6B9DC2AD
:1012100001F39CC200F3000172EC04F003C0F9F288
:1012200002C0F8F201C0F7F200C0F6F203C005F305
:1012300002C004F301C003F300C002F30301096B11
:10124000D80E086F1F0E076F8D0E066F000144EC5D
:1012500003F003C0F9F202C0F8F201C0F7F200C0D7
:10126000F6F203C001F302C000F301C0FFF200C0B8
:10127000FEF20301056B046B200E036F810E026FFB
:101280000001C5DC03C000F102C0FFF001C0FEF0A8
:1012900000C0FDF000C101F3FFC000F3FEC0FFF28B
:1012A000FDC0FEF20301056B046B7A0E036F880E1E
:1012B000026F0001ACDC03C0F9F202C0F8F201C019
:1012C000F7F200C0F6F2D882E8C005F3E7C004F3F5
:1012D000E6C003F3E5C002F30301096B086B480E97
:1012E000076F830E066F0001CBEC04F0500E030174
:1012F000016F8D0E006F170E0201FF6F790EFE6FEA
:1013000003C005F302C004F301C003F300C002F3FD
:1013100000017DDCD8920301056B046B036B7F0E2B
:10132000026F03C009F302C008F301C007F300C055
:1013300006F30001CBEC04F0F9C205F3F8C204F3A4
:10134000F7C203F3F6C202F303C009F302C008F3C5
:1013500001C007F300C006F344EC03F003C0F9F248
:1013600002C0F8F201C0F7F200C0F6F254EC04F04B
:1013700002C0F3F201C0F2F20201F3510108D8A059
:1013800033D304E1F2513A08D8A02ED3F3530AE143
:10139000F251450807E30001F46BF36BF26BF16B5C
:1013A00021D30201F3510B080FE2FF0A03E1F251CE
:1013B000E4080AE20001F46B600EF36F790EF26F3D
:1013C000890EF16F0FD30201F35326E1F251950814
:1013D00023E3F3C201F3F2C200F3000172EC04F064
:1013E0000301016B006B180E0201FF6F800EFE6F90
:1013F00003C005F302C004F301C003F300C002F30D
:10140000000105DC03C0F4F002C0F3F001C0F2F00B
:1014100000C0F1F0E7D20201F35327E1F251B30823
:1014200024E3F3C201F3F2C200F3000172EC04F012
:101430000301016B006B300E0201FF6F800EFE6F27
:1014400003C005F302C004F301C003F300C002F3BC
:10145000000107EC06F003C0F4F002C0F3F001C095
:10146000F2F000C0F1F0BED20201F35329E1F251D3
:10147000D10826E3F3C201F3F2C200F3000172ECDB
:1014800004F0CD0E0301016FCC0E006F3C0E020183
:10149000FF6F800EFE6F03C005F302C004F301C0AE
:1014A00003F300C002F3000107EC06F003C0F4F000
:1014B00002C0F3F001C0F2F000C0F1F093D20201DB
:1014C000F35328E1F251DB0825E3F3C201F3F2C242
:1014D00000F3000172EC04F0660E0301016F006F6F
:1014E000460E0201FF6F800EFE6F03C005F302C0BF
:1014F00004F301C003F300C002F3000107EC06F09F
:1015000003C0F4F002C0F3F001C0F2F000C0F1F04B
:1015100069D20201F35329E1F251E50826E3F3C24F
:1015200001F3F2C200F3000172EC04F09A0E030121
:10153000016F990E006F590E0201FF6F800EFE6F52
:1015400003C005F302C004F301C003F300C002F3BB
:10155000000107EC06F003C0F4F002C0F3F001C094
:10156000F2F000C0F1F03ED20201F35329E1F25152
:10157000EF0826E3F3C201F3F2C200F3000172ECBC
:1015800004F0480E0301016FE10E006F6A0E0201C4
:10159000FF6F800EFE6F03C005F302C004F301C0AD
:1015A00003F300C002F3000107EC06F003C0F4F0FF
:1015B00002C0F3F001C0F2F000C0F1F013D202015A
:1015C000F35329E1F251F90826E3F3C201F3F2C221
:1015D00000F3000172EC04F0CD0E0301016FCC0E9C
:1015E000006F7C0E0201FF6F800EFE6F03C005F3DB
:1015F00002C004F301C003F300C002F3000107ECD2
:1016000006F003C0F4F002C0F3F001C0F2F000C035
:10161000F1F0E8D10201F35101082AE303E1F251AC
:10162000030826E3F3C201F3F2C200F3000172ECF7
:1016300004F0520E0301016FB80E006F0E0E02018E
:10164000FF6F810EFE6F03C005F302C004F301C0FB
:1016500003F300C002F3000107EC06F003C0F4F04E
:1016600002C0F3F001C0F2F000C0F1F0BBD1020102
:10167000F351010829E303E1F251080825E3F3C21D
:1016800001F3F2C200F3000172EC04F0330E030127
:10169000016F006F1B0E0201FF6F810EFE6F03C012
:1016A00005F302C004F301C003F300C002F300011C
:1016B00007EC06F003C0F4F002C0F3F001C0F2F052
:1016C00000C0F1F08FD10201F35101082AE303E1D8
:1016D000F2510D0826E3F3C201F3F2C200F3000158
:1016E00072EC04F0850E0301016FEB0E006F210E0A
:1016F0000201FF6F810EFE6F03C005F302C004F309
:1017000001C003F300C002F3000107EC06F003C0C0
:10171000F4F002C0F3F001C0F2F000C0F1F062D1C9
:101720000201F35101082AE303E1F251120826E312
:10173000F3C201F3F2C200F3000172EC04F0EC0E0C
:101740000301016F510E006F280E0201FF6F810E21
:10175000FE6F03C005F302C004F301C003F300C031
:1017600002F3000107EC06F003C0F4F002C0F3F04E
:1017700001C0F2F000C0F1F035D10201F3510108CF
:1017800029E303E1F2511C0825E3F3C201F3F2C29D
:1017900000F3000172EC04F0660E0301016F006FAC
:1017A0002E0E0201FF6F810EFE6F03C005F302C013
:1017B00004F301C003F300C002F3000107EC06F0DC
:1017C00003C0F4F002C0F3F001C0F2F000C0F1F089
:1017D00009D10201F35101082AE303E1F251210882
:1017E00026E3F3C201F3F2C200F3000172EC04F04D
:1017F000CD0E0301016FCC0E006F340E0201FF6F9E
:10180000810EFE6F03C005F302C004F301C003F3B1
:1018100000C002F3000107EC06F003C0F4F002C0C0
:10182000F3F001C0F2F000C0F1F0DCD00201F3519E
:10183000010829E303E1F251260825E3F3C201F38D
:10184000F2C200F3000172EC04F0660E0301016FB6
:10185000006F3E0E0201FF6F810EFE6F03C005F3A5
:1018600002C004F301C003F300C002F3000107EC5F
:1018700006F003C0F4F002C0F3F001C0F2F000C0C3
:10188000F1F0B0D00201F351010829E303E1F25174
:101890002B0825E3F3C201F3F2C200F3000172EC5E
:1018A00004F0330E0301016F006F4B0E0201FF6F56
:1018B000810EFE6F03C005F302C004F301C003F301
:1018C00000C002F3000107EC06F003C0F4F002C010
:1018D000F3F001C0F2F000C0F1F084D00201F35146
:1018E00001082AE303E1F251300826E3F3C201F3D1
:1018F000F2C200F3000172EC04F09A0E0301016FD2
:10190000990E006F510E0201FF6F810EFE6F03C032
:1019100005F302C004F301C003F300C002F30001A9
:1019200007EC06F003C0F4F002C0F3F001C0F2F0DF
:1019300000C0F1F057D00201F35101082AE303E19E
:10194000F251350826E3F3C201F3F2C200F30001BD
:1019500072EC04F0CD0E0301016FCC0E006F540E3B
:101960000201FF6F810EFE6F03C005F302C004F396
:1019700001C003F300C002F3000107EC06F003C04E
:10198000F4F002C0F3F001C0F2F000C0F1F02AD090
:101990000201F351010827E303E1F2513A0823E37E
:1019A000F3C201F3F2C200F3000172EC04F0030190
:1019B000016B006B580E0201FF6F810EFE6F03C0BA
:1019C00005F302C004F301C003F300C002F30001F9
:1019D00007EC06F003C0F4F002C0F3F001C0F2F02F
:1019E00000C0F1F002015DD0360EF25DF66F010E1F
:1019F000F359F76FE8CF01F3F6C200F3000172EC80
:101A000004F003C005F302C004F301C003F300C0F7
:101A100002F3F60E0301096F280E086F380E076FE8
:101A2000830E066F000144EC03F0D8920301056BAE
:101A3000046B580E036F810E026F03C009F302C0DE
:101A400008F301C007F300C006F30001CBEC04F07B
:101A500003C0F9F202C0F8F201C0F7F200C0F6F2DA
:101A6000F3C201F3F2C200F372EC04F0F9C201F325
:101A7000F8C200F3F7C2FFF2F6C2FEF203C005F3AC
:101A800002C004F301C003F300C002F307EC06F048
:101A900003C0F4F002C0F3F001C0F2F000C0F1F0B6
:101AA0000201F4C001F3F3C000F3F2C0FFF2F1C091
:101AB000FEF20301056B046B036B800E026F0001E5
:101AC00007EC06F003C0F4F002C0F3F001C0F2F03E
:101AD00000C0F1F0ABEF0DF0F3EF03F003C0E8F05E
:101AE00002C0E7F001C0E6F000C0E5F0E8C0F9F29E
:101AF000E7C0F8F2E6C0F7F2E5C0F6F254EC04F005
:101B000001C0F1F20201F151040DF350036A590FC3
:101B1000E96E010E0320EA6EEFCFE9F0ECCFEAF0B8
:101B2000ECCFEBF0ECCFECF0000198EF06F003C047
:101B3000F0F002C0EFF001C0EEF000C0EDF02DEFCC
:101B400008F003C0F8F002C0F7F001C0F6F000C0E2
:101B5000F5F07EEF08F071EF12F00900F6CFF2F227
:101B6000F7CFF3F2166AF2BE168EF29EF5CF16F399
:101B700060EC00F016BEF28EF2C2F6FFF3C2F7FF81
:101B80000201F12F01D002D00001E7D700011200BD
:101B90000201FE51B608FE6F036AFFC202F3FF8F17
:101BA000D890FF3303010033013303320232013294
:101BB00000320201FE2FF4D7030102AF0BD0001E4A
:101BC000011E021E031E002AD8B4012AD8B4022A1C
:101BD000D8B4032A00011200D8B204D0030EEA6E72
:101BE000060EE96E006A016A026A036A0301066B67
:101BF000076B086B096B05510411031102112EE0EC
:101C0000200E0A6FD8900201FE37FF37030100371C
:101C1000013706370737083709370551095D08E1ED
:101C20000451085D05E10351075D02E10251065DC3
:101C30000FE30251065F0351D8A0033D075F045133
:101C4000D8A0043D085F0551D8A0053D095FD880A4
:101C500000360136023603360A2FD4D706C3EFFF0B
:101C600007C3ECFF08C3ECFF09C3ECFF000112003F
:101C7000E9500201F66FF551F86F1DE0F4C201F36F
:101C8000F3C200F3F2C2FFF2F1C2FEF20301056BF0
:101C9000046B200E036F820E026F000107EC06F04A
:101CA00003C0F4F202C0F3F201C0F2F200C0F1F29C
:101CB0000201F82FE3D7F4C201F3F3C200F3F2C23A
:101CC000FFF2F1C2FEF2000163DF03C0F4F202C0D2
:101CD000F3F201C0F2F200C0F1F20201F4AF0DD054
:101CE000F607F68BF11FF21FF31FF41FF12BD8B488
:101CF000F22BD8B4F32BD8B4F42B3B0EFD6F9A0E15
:101D0000FC6FCA0EFB6FFA6B0A0EF86FF551D8B470
:101D1000F62BD882020EEA6EF10EE96EF4C201F3E0
:101D2000F3C200F3F2C2FFF2F1C2FEF2FDC205F30C
:101D3000FCC204F3FBC203F3FAC202F300014CDF5E
:101D40000150005213E10201F529F85DD8A402D038
:101D500000010CD0F6510DE00F0BF85D01E05FE2E1
:101D6000F6BF5DD0F6BD05D0200E4CD0200E02018E
:101D7000F617F6AB16D0F69BF551D8A4F60700502F
:101D8000F66F166AF2BE168EF29E2D0E0301166FC6
:101D9000000160EC00F016BEF28E0201F651006EFA
:101DA000F66BF551F85D14E10050F66F166AF2BE5D
:101DB000168EF29E2E0E0301166F000160EC00F0ED
:101DC00016BEF28E0201F651006E200EF617000EBE
:101DD000300EF6AB17D0F69BF551D8A4F60700509D
:101DE000F66F166AF2BE168EF29E2D0E0301166F66
:101DF000000160EC00F016BEF28E0201F651006E9A
:101E0000F66B300E0026166AF2BE168EF29E00C0E9
:101E100016F3000160EC00F016BEF28E0201D892BB
:101E2000FDC201F3FCC200F3FBC2FFF2FAC2FEF2F4
:101E30000301056B046B036B0A0E026F0001CCDE1D
:101E400003C0FDF202C0FCF201C0FBF200C0FAF2D6
:101E50000201F82F5ED700011200F0C2EAFFEFC2C4
:101E6000E9FF0201FEC2EFFFE92AD8B4EA2AEF6ACD
:101E7000EF2BD8B4F02B000112000900F6CFF2F2DC
:101E8000F7CFF3F2F5CFFEF2E8DFF2C2F6FFF3C2CE
:101E9000F7FF0201F12F01D002D00001EED70001BF
:101EA0001200E9500201F66FF551F86F1DE0F4C21F
:101EB00001F3F3C200F3F2C2FFF2F1C2FEF203013A
:101EC000056B046B200E036F820E026F000107EC9E
:101ED00006F003C0F4F202C0F3F201C0F2F200C057
:101EE000F1F20201F82FE3D7F4C201F3F3C200F3D9
:101EF000F2C2FFF2F1C2FEF200014ADE03C0F4F2C8
:101F000002C0F3F201C0F2F200C0F1F20201F4AF3C
:101F10000DD0F607F68BF11FF21FF31FF41FF12B04
:101F2000D8B4F22BD8B4F32BD8B4F42B3B0EFD6FFE
:101F30009A0EFC6FCA0EFB6FFA6B0A0EF86FF55122
:101F4000D8B4F62BD882020EEA6EF10EE96EF4C216
:101F500001F3F3C200F3F2C2FFF2F1C2FEF2FDC2DE
:101F600005F3FCC204F3FBC203F3FAC202F300015F
:101F700033DE0150005213E10201F529F85DD8A4C7
:101F800002D000010CD0F6510DE00F0BF85D01E01E
:101F900040E2F6BF3ED0F6BD05D0200E34D0200E74
:101FA0000201F617F6AB0ED0F69BF551D8A4F60752
:101FB0000050F66F2D0EFE6F00014FDF0201F6514B
:101FC000006EF66BF551F85D0CE10050F66F2E0EC9
:101FD000FE6F000142DF0201F651006E200EF6177F
:101FE000000E300EF6AB0FD0F69BF551D8A4F607D5
:101FF0000050F66F2D0EFE6F00012FDF0201F6512B
:10200000006EF66B300E002600C0FEF2000125DFE8
:102010000201D892FDC201F3FCC200F3FBC2FFF241
:10202000FAC2FEF20301056B046B036B0A0E026F2A
:102030000001D2DD03C0FDF202C0FCF201C0FBF2E0
:1020400000C0FAF20201F82F7DD700011200EF5212
:1020500016E0EACFF2F2E9CFF1F2166AF2BE168E7E
:10206000F29EEFCF16F360EC00F016BEF28EF2C2D5
:10207000EAFFF1C2E9FFE92AD8B4EA2AE8D722EF59
:1020800011F0EF5210E0EACFF2F2E9CFF1F2EF50A7
:102090009EA8FED7AD6EF2C2EAFFF1C2E9FFE92ABF
:1020A000D8B4EA2AEED726EF11F002EC02F04E0E79
:1020B000F66E020EF76ED7EC01F05C0EF66E020EB5
:1020C000F76ED7EC01F0660EF66E020EF76EEDECD1
:1020D00001F00D0EFEEC01F00A0EFEEC01F0080E10
:1020E0000201F16FFA0EFE6F0001C2EC01F0020175
:1020F000F12FF8D7000102EC02F0740EF66E020E1A
:10210000F76ED7EC01F0840EF66E020EF76EEDEC72
:1021100001F00D0EFEEC01F00A0EFEEC01F0080ECF
:102120000201F16FFA0EFE6F0001C2EC01F0020134
:10213000F12FF8D7000102EC02F0900EF66E020EBD
:10214000F76ED7EC01F00201F06B1D0EEF6F9C0EE5
:10215000F66E020EF76E400EF16F00018EDE010E7C
:10216000E96EE8C0F4F2E7C0F3F2E6C0F2F2E5C0CF
:10217000F1F20201F56F000194DEE10EF66E020E3F
:10218000F76E050E0201F16F000177DE010EE96EB8
:10219000F4C0F4F2F3C0F3F2F2C0F2F2F1C0F1F2E3
:1021A0000201F56F00017DDEEB0EF66E020EF76E9A
:1021B000040E0201F16F000160DE010EE96EECC059
:1021C000F4F2EBC0F3F2EAC0F2F2E9C0F1F202017C
:1021D000F56F000166DEF40EF66E020EF76E040E69
:1021E0000201F16F000149DE010EE96EF0C0F4F268
:1021F000EFC0F3F2EEC0F2F2EDC0F1F20201F56FC2
:1022000000014FDEFD0EF66E020EF76E060E0201A5
:10221000F16F000132DE010EE96EF8C0F4F2F7C092
:10222000F3F2F6C0F2F2F5C0F1F20201F56F00012F
:1022300038DE220E0201FE6F00010FDEEA6A1D0E7B
:10224000E96E05D7EA6A1D0EE96E1BD70D0EFEEC8E
:1022500001F00A0EFEEC01F0080E0201F16FFA0E19
:10226000FE6F0001C2EC01F00201F12FF8D700016E
:1022700002EC02F00A0EF66E030EF76ED7EC01F0D8
:102280001A0EF66E030EF76EEDEC01F00D0EFEEC7D
:1022900001F00A0EFEEC01F0140E0201F16FFA0ECD
:1022A000FE6F0001C2EC01F00201F12FF8D700012E
:1022B00002EC02F02E0EF66E030EF76ED7EC01F074
:1022C000480EF66E030EF76EEDEC01F00D0EFEEC0F
:1022D00001F00A0EFEEC01F0140E0201F16FFA0E8D
:1022E000FE6F0001C2EC01F00201F12FF8D70001EE
:1022F00002EC02F0580EF66E030EF76ED7EC01F00A
:10230000620EF66E030EF76EEDEC01F00D0EFEECB4
:1023100001F00A0EFEEC01F0080E0201F16FFA0E58
:10232000FE6F0001C2EC01F00201F12FF8D70001AD
:102330007CEF13F0F86AD09E078E95988C88B8864B
:10234000E10EAF6E040EB06EA60EAC6E900EAB6ECC
:10235000E86BE76BE66BE56BEC6BEB6BEA6BE96BE1
:10236000F06BEF6BEE6BED6BF46BF36B700EF26F6B
:10237000840EF16FF86BF76BF66BF56BFC6BFB6B18
:10238000FA6BF96B0101006B0001FF6BFE6BFD6BDB
:102390000101FD6B0201646B636B666B9D6B9C6B53
:1023A0009E6BF06BEF6BC150C00B0F09C16E070E37
:1023B000B46E59D00200170000A401598269999A9D
:1023C00082633333825CF5C382573333825170A406
:1023D000824C28F682470A3D8242147B823D47AEFA
:1023E0008238CCCD82347AE1823051EC822C51ECAF
:1023F00082287AE18224A3D782211EB8821DC28F4F
:10240000821A666682173333821428F6821147AE29
:10241000820E6666820BAE148208F5C3820666667B
:102420008203D70A820170A4817E66668179EB857A
:10243000817570A4817147AE816D1EB8816947AE08
:10244000816570A48161999A815DC28F815A3D71C5
:1024500081570A3D8153851F815051EC814D1EB833
:10246000010267000000000EF86E230EF76EB40E36
:10247000F66E0900F550006E000A13E00900F550F1
:10248000016EE8BE05D00F0BEA6E0900F5CFE9FF3B
:1024900001BC090001AC0900F5CFEEFF004EE9D701
:1024A000F9D7F86AC050C00B0709C06EC08EC28051
:1024B000C150C00B0A09C16EA50ECD6E9D8A150EC6
:1024C000CF6EA00ECE6E9D80C00EF212000113EFF3
:1024D00002F0420EF66E010EF76ED7EC01F06CEFD3
:1024E0000DF0540EF66E010EF76E060E0201F16F3E
:1024F0000001ADEC0DF0890EE96EE8C0F4F2E7C022
:10250000F3F2E6C0F2F2E5C0F1F2020E0201F56F5D
:10251000000138EC0EF0166AF2BE168EF29E0D0E19
:102520000301166F000160EC00F016BEF28E166A11
:10253000F2BE168EF29E0A0E0301166F000160ECC9
:1025400000F016BEF28E620EF66E010EF76E040EED
:102550000201F16F0001ADEC0DF0010EE96EECC06F
:10256000F4F2EBC0F3F2EAC0F2F2E9C0F1F20201D8
:10257000F56F000138EC0EF0166AF2BE168EF29E70
:102580000D0E0301166F000160EC00F016BEF28E16
:10259000166AF2BE168EF29E0A0E0301166F000135
:1025A00060EC00F016BEF28E6E0EF66E010EF76E47
:1025B000040E0201F16F0001ADEC0DF0010EE96EA9
:1025C000F0C0F4F2EFC0F3F2EEC0F2F2EDC0F1F2BF
:1025D0000201F56F000138EC0EF0166AF2BE168E9D
:1025E000F29E0D0E0301166F000160EC00F016BEA6
:1025F000F28E166AF2BE168EF29E0A0E0301166F56
:10260000000160EC00F016BEF28E7A0EF66E010E3E
:10261000F76E100E0201F16F0001ADEC0DF0890EA6
:10262000E96EF8C0F4F2F7C0F3F2F6C0F2F2F5C0CA
:10263000F1F2020E0201F56F000138EC0EF0166A9D
:10264000F2BE168EF29E0D0E0301166F000160ECB5
:1026500000F016BEF28E166AF2BE168EF29E0A0EBA
:102660000301166F000160EC00F016BEF28E900EB2
:10267000F66E010EF76E050E0201F16F0001ADEC72
:102680000DF0020EE96EF4C0F4F2F3C0F3F2F2C002
:10269000F2F2F1C0F1F20201F56F000138EC0EF038
:1026A000166AF2BE168EF29E0D0E0301166F000121
:1026B00060EC00F016BEF28E166AF2BE168EF29E26
:1026C0000A0E0301166F000160EC00F016BEF28ED8
:1026D000080E0201F16FFA0EFE6F0001C2EC01F06C
:1026E0000201F12FF8D7645303E16351E70804E2D4
:0E26F000646B636B0001D9D40001F1D60300C6
:020000040030CA
:0E00000024CE3E1E0087A1000FC00FE00F406F
:00000001FF
;PIC18F4550
;CRC=5E2D  CREATED="24-Dec-18 00:54"
